:020000040000FA
:10000000B0030020650100007101000073010000D1
:1000100000000000000000000000000000000000E0
:10002000000000000000000000000000750100005A
:1000300000000000000000007701000079010000CE
:100040007B0100007B0100007B0100007B010000C0
:100050007B0100007B010000210200007B01000009
:100060007B0100007B0100007B0100007B010000A0
:100070007B0100007B0100007B0100007B01000090
:100080007B0100007B0100007B0100007B01000080
:100090007B0100007B0100007B0100007B01000070
:1000A0007B0100007B0100007B0100007B01000060
:1000B0007B0100007B0100007B0100007B01000050
:1000C00000F002F800F03EF80CA030C80838241800
:1000D0002D18A246671EAB4654465D46AC4201D180
:1000E00000F030F87E460F3E0FCCB6460126334274
:1000F00000D0FB1AA246AB463343184790020000DB
:10010000B0020000103A02D378C878C1FAD852077A
:1001100001D330C830C101D504680C6070470000BD
:100120000023002400250026103A01D378C1FBD813
:10013000520700D330C100D50B6070471FB51FBDFB
:1001400010B510BD00F02FF81146FFF7F7FF00F0D3
:10015000EDF800F047F803B4FFF7F2FF03BC00F03E
:100160004FF8000008488046C146804707480047CE
:10017000FEE7FEE7FEE7FEE7FEE7FEE70448054987
:10018000054A064B7047000001030000C100000053
:10019000B0000020B0030020B0010020B00100201A
:1001A000704770477047754600F024F8AE4605006A
:1001B00069465346C008C000854618B020B5FFF711
:1001C000DDFF60BC00274908B6460026C0C5C0C593
:1001D000C0C5C0C5C0C5C0C5C0C5C0C5403D49003B
:1001E0008D46704710B50446C046C0462046FFF70E
:1001F000B2FF10BD0048704750000020704700005B
:1002000001491820ABBEFEE726000200416170479D
:100210000246012088409063906B704701617047EF
:1002200010B53248006B002829D03048806A002879
:1002300013D02E4801682E480268012090402D4AB4
:10024000126810432B4A1060814248D1012028498E
:1002500009688900284A505041E024480168244830
:10026000026801209040814239D10220204909686A
:100270008900214A505000201C4948602FE01B484B
:10028000806A002813D019480268194801680120C3
:100290008840184909688143164801608A421ED186
:1002A0000320134909688900134A505017E00F488A
:1002B00000681249884201D1012000E000200C4969
:1002C0000A68012191404840002808D004200849CC
:1002D00009688900084A50500848044948600448A1
:1002E00001680248FFF794FF10BD000000000140C4
:1002F000080000200C00002010000020FFFF00007C
:10030000014802490860704700E1F505040000203B
:10031000002105E0002200E0521C8242FCDB491C67
:10032000014B9942F6DB70471027000000BF29E01F
:100330006420FFF7EDFF01211348FFF767FF6420FA
:10034000FFF7E6FF01211048FFF768FF6420FFF781
:10035000DFFF02210C48FFF759FF6420FFF7D8FFA9
:1003600002210948FFF75AFF6420FFF7D1FF04215B
:100370000548FFF74BFF6420FFF7CAFF042102483E
:10038000FFF74CFFD4E7000000000140AC03000081
:10039000000000201000000004010000BC03000069
:1003A00010000020A00300002001000000E1F5057E
:0C03B00000E1F505000000000000000066
:04000005000000C136
:00000001FF
